:020000040000fa
:080000000001040000000000f3
:020000040000fa
:100008009a0100003a0b0000500b0000660b00003c
:100018007c0b00009a0100009a0100009a01000080
:10002800d0080000dc080000e8080000f408000020
:10003800000900000c090000180900003a09000036
:1000480046090000500900005c090000680900002a
:10005800b60a0000c20a0000ce0a0000da0a000050
:10006800e60a0000f20a0000fe0a00009a010000f9
:100078009a0100009a0100009a0100000a0b000092
:100088009a0100009a0100009a0100009a010000fc
:100098009a0100009a0100009a0100009a010000ec
:1000a8009a0100009a0100009a0100009a010000dc
:1000b8009a0100009a0100009a010000160b000046
:1000c800220b00009a0100009a0100002e0b00008c
:1000d8009a0100009a0100009a0100009a010000ac
:1000e8009a0100009a0100009a0100009a0100009c
:0800f8009a0100009a010000ca
:020000040000fa
:100108009a010000920b0000a80b0000be0b000033
:10011800d40b00009a0100009a0100009a01000027
:10012800d0080000dc080000e8080000f40800001f
:10013800000900000c090000180900003a09000035
:1001480046090000500900005c0900006809000029
:10015800b60a0000c20a0000ce0a0000da0a00004f
:10016800e60a0000f20a0000fe0a00009a010000f8
:100178009a0100009a0100009a0100000a0b000091
:100188009a0100009a0100009a0100009a010000fb
:100198009a0100009a0100009a0100009a010000eb
:1001a8009a0100009a0100009a0100009a010000db
:1001b8009a0100009a0100009a010000160b000045
:1001c800220b00009a0100009a0100002e0b00008b
:1001d8009a0100009a0100009a0100009a010000ab
:1001e8009a0100009a0100009a0100009a0100009b
:0801f8009a0100009a010000c9
:020000040000fa
:100200002f8420008e9e20000e0188000000000038
:10021000000020000000e000020032000001200089
:10022000200288000c000700a0be20000100200072
:1002300011000700000020000000e0000200320072
:10024000000002000000000084080200000000001e
:100250000040da000000fe004440a9000000200039
:100260000000e0000300320000002000a001880030
:100270004440a8000000060091018800800078003a
:100280000000eb0015003700e280400032a0b4000f
:100290009101ba00e280400032a0b4009102ba009d
:1002a000e280400032a0b4000002eb00472bde00e9
:1002b000f507b200602ce10004003a000059eb00a1
:1002c0008301e900fdff3e00040037006128e100e2
:1002d000010032000082eb00040007001101ba00a7
:1002e0000200e000e8ff3a00000006003159ba00c1
:1002f0008301e9000c0032002159ba008301e900b2
:10030000080032000400e00003003a00e2804000f0
:1003100032a0b400f5ff370011d9ba008301e9001b
:10032000faff3a008100e800e180400032a0b4000a
:10033000000006000040da000000fe008d00a90069
:1003400021e2a9008500a900000006008500a9009f
:10035000e700600082ff2f0068006000c304800097
:10036000030161004300de00028170006100600053
:10037000c20488004800dd00f1ef2f006204800015
:100380008280600081007000610488000000060027
:10039000001180006140600000000600101188001c
:1003a00001118800000006000080eb002002ab0075
:1003b0000700320020c2a9002342ab000200320035
:1003c000201180000000060020118000f00fb20014
:1003d000000006002342ab0001003a00f00fb2001b
:1003e0002011880000000600889fbe008a9fbe0082
:1003f00030044200b0844a0030054b0090854b0029
:100400006000b1000898be000a90be000440e10000
:1004100005c8e10006d0e10007d8e1000200310084
:10042000680040001008e8004f05be004f04be0001
:1004300000000600889fbe008a9fbe003004be00f8
:100440002005be000418540005985c0006185d00e5
:1004500007985d00110020000440e10005c8e1009c
:1004600006d0e10007d8e100010039008000eb0070
:10047000108810004f05be004f04be0000000600ab
:100480001200fa00889fbe008a9fbe008c9fbe00ab
:10049000e0b79f00f1b79f0082bf9f0093bf9f000e
:1004a0000605be000404be000000eb00d0b79f00ac
:1004b000c0b79f00b0b79f00a0b79f0090b79f0044
:1004c0000006eb005fb19700cfb0970082014100ba
:1004d0003fb097000200e00004003d003700070035
:1004e0007e805700c0ff070003003700330007007d
:1004f0007e805700cfff0700dfb697000d00e000b9
:100500000c0035006fb29700ffb297000fbb970049
:100510009fbb970010002000010020006011b80070
:1005200000027200818272000203730083837300f1
:100530001b0007000c06e80001042000810f560094
:10054000e0ff3a000d00e00004003d000802be009c
:100550000a03be007e805700a3ff07005fa8970034
:100560000000e00005003a001fb29700afb297000c
:100570003fb39700cfb39700090007006fb0970013
:10058000ffb097000fb997009fb997004f06be00c4
:100590004f05be004f04be000080fa0000000600b8
:1005a0000100070000000600a4b79f00b5b79f0038
:1005b000c6b79f00d7b79f00000006004f09de00b6
:1005c00082817100b3b79f004f01de00818040003f
:1005d00082807000a1b79f008fb097004f09de00a6
:1005e000000040000200700090b79f007fa89700b5
:1005f0004f01de00818040008280700081b79f0043
:100600000d0007004f3ade000000400004007000bb
:10061000f0af9f00080007000402420085824a00f4
:1006200006034b0087834b00dfff07000802be0074
:100630000a03be00000006002fb29700bfb2970069
:100640004fb39700dfb3970000000600881f7800c3
:1006500018002000881f780089ff07008f87e900b5
:100660004f04780000000600801feb0084ff0700a5
:100670008f87e90000000600889fbe008a9fbe00a9
:10068000e00f5000e08f5800e00f5900e08f590054
:100690000c003d006044b8006055b80000005400f4
:1006a00081805c0002015d0083815d0018002000f4
:1006b0001500070008003d00180007000004eb00cb
:1006c000050037000004eb000f00070002003d00aa
:1006d0001200070018002000dcff07000800e000ff
:1006e000060032006022b8006033b80000005200fb
:1006f00081805a0002015b0083815b004f05be00d0
:100700004f04be0000000600e00f5200e08f5a00c8
:10071000e00f5b00e08f5b00000006006044b80063
:100720006055b8000402540085825c0006035d0039
:1007300087835d0000000600889fbe008a9fbe0080
:100740008c1f7800e00f5000e08f5800e00f590038
:10075000e08f59000d003d006044b8006055b800be
:100760000000540081805c0002015d0083815d0017
:100770001c0020000820e10009a8e1000ab0e10007
:100780000bb8e1000d003d00080037000006eb004b
:10079000e00f5200e08f5a00e00f5b00e08f5b003b
:1007a00006003d006044b8006055b80004025400e3
:1007b00085825c0006035d0087835d00aaff070059
:1007c0000c00e000060032006022b8006033b80080
:1007d0000000520081805a0002015b0083815b00af
:1007e0004f0678004f05be004f04be000000060013
:1007f000889fbe008a9fbe008c1f78000006eb0019
:10080000e00f5000e08f5800e00f5900e08f5900d2
:1008100007003d006044b8006055b8000000540077
:1008200081805c0002015d0083815d001c0020006e
:10083000e00f5200e08f5a00e00f5b00e08f5b009a
:1008400007003d006044b8006055b8000402540041
:1008500085825c0006035d0087835d000c00a200ba
:100860000c0007000c00e000060032006022b80017
:100870006033b8000000520081805a0002015b0022
:1008800083815b004f0678004f05be004f04be0019
:1008900000000600889fbe008a9fbe008c9fbe009d
:1008a0000404b8000506b8008904460060854e00bf
:1008b0000606b8000a054600e0854e000706b800a7
:1008c0008b054600040eb800890446000a854e00d8
:1008d000e0854d00050eb8000a0546008b854e00e8
:1008e000060eb8008b0546000416b8000a0546003f
:1008f0008b854e000516b8008b054600041eb80017
:100900008b0546000800be000a01be004f06be006f
:0c0910004f05be004f04be0000000600b2
:020000040000fa
:10091c000000fa001828ef001a28ef001c28ef003e
:10092c001e28ef0060012000004188002482200076
:10093c006000b8006011b800009abe000292be00c0
:10094c00b06c2000504188002c28ef002e28ef00be
:10095c000080fa00000006000200fa00d822ef0026
:10096c00f0312000200e8800b0002000a04088004c
:10097c0010002000000f7800080037001e007800df
:10098c00110020000008dd0080007800b0408000dd
:10099c0001007000b04088001e0fe800a0408000ed
:1009ac009e007800808f5000f4ff39000001200079
:1009bc00000e8800f00f2000400e8800c221ef00ce
:1009cc00f0062000600e8800c1e1a8000080fa004b
:1009dc00000006000000fa00c602a800c622a8000b
:1009ec00c642a800a862a900a882a900a8a2a900d2
:1009fc00c006200000158800200220003015880059
:100a0c00aa22ef00200020002015880000302000d2
:100a1c0010158800c004800000c0a10000d0a00008
:100a2c0000e0a000c00488008560a900a1e2a80035
:100a3c0000a02600810120007f0307000080fa003f
:100a4c00000006000400fa0039fe0700e0ff2f004a
:100a5c003bfe07001111800000082000010070000f
:100a6c0010118800c020ef00c220ef008020ef00a2
:100a7c008220ef00c642a800f0c92900000f7800c0
:100a8c00f0fb2d00100798009e0090001e007800cf
:100a9c003ffe070011118000010f78000080fa0062
:100aac00000006000600fa00200798000000eb008a
:100abc00000f78000000eb00100798000c003700c6
:100acc00110020001e0090000008dd00800078005e
:100adc002e009000008060000000e0000100320059
:100aec001e0fe8001e0090000000e80010079800a0
:100afc001e009000ef0f5000f1ff34001e00780034
:100b0c00610060000000e00002003a0010002000cc
:100b1c00010037000000eb000080fa000000060026
:100b2c000600fa00200798000000eb00000f780088
:100b3c000000eb00100798000c003700110020009b
:100b4c001e0090000008dd00800078002e00900050
:100b5c00008060000000e000010032001e0fe80081
:100b6c001e0090000000e800100798001e00900086
:100b7c00ee0f5000f1ff34009e00780061806000a1
:100b8c00004078000004e00005003200ae00900048
:100b9c0000002800010070002007980004003700b6
:100bac00ae009000f0ff2700008060002007980046
:100bbc002e0090000080fa00000006000400fa00ed
:100bcc00100798000000eb00000f78001e0090004a
:100bdc00d3ff070000000000401680006400600096
:100bec000000e000fcff3a0000000000e5fd0700fb
:100bfc000004e000fdff3200e8fd0700000f780064
:100c0c001e009000f0fd07000000000000118000a5
:100c1c00620060000000e000fcff3a001e0078005b
:100c2c000080fa00000006000000fa000080fa00c4
:100c3c00000006000200fa00000f7800200e800071
:100c4c008000e8001e0078000088b9008000780061
:100c5c008002200000017800110009008280d80079
:100c6c00b00e8800b00e8000c00e8800b00e800060
:100c7c00d00e8800b00e8000904188000080fa00f1
:100c8c00000006000000fa00c04080000000e000f8
:100c9c001b003a00d04080000000e000050032004c
:100cac00a0418000e50f500002003a003428ef000c
:100cbc0013003700d04080000000e00006003a002e
:100ccc00a04180000000e00003003a00500020002a
:100cdc00a04188000a003700d04080000000e000ee
:100cec0004003200a04180000000e800a041880010
:100cfc0003003700a04180000000e900a0418800fb
:100d0c00e04080000000e00027003a00f040800046
:100d1c000000e00024003a00a04180000000e00048
:100d2c0003003a0040202000a00e88004a00370043
:100d3c00a0418000e10f500003003a000021200088
:100d4c00a00e880044003700a0418000e20f500044
:100d5c0003003a0000812000a00e88003e003700fe
:100d6c00a0418000e30f500003003a0010802000e7
:100d7c00a00e880038003700a0418000e40f50001e
:100d8c0003003a0010002200a00e88003200370049
:100d9c00a0418000e50f50002e003a0040002200d8
:100dac00a00e88002c003700e1408000f00f2000de
:100dbc00808f500028003a00f04080000000e000d6
:100dcc0025003a00a0418000e20f500014003200d0
:100ddc00e20f500005003c000000e0000a00320069
:100dec00e10f50000b0032001b003700e40f5000e5
:100dfc0011003200e40f50000c003500e50f5000dc
:100e0c00100032001400370040302000a00e880083
:100e1c001100370000312000a00e88000e003700b2
:100e2c0000c12000a00e88000b00370010c020006d
:100e3c00a00e88000800370010002300a00e8800c8
:100e4c000500370040002300a00e880000000000c1
:100e5c0001003700000000000080fa0000000600ce
:100e6c000000fa0000a12000a00e88003428ef003a
:100e7c0000102700210020006f0207000080fa00fc
:100e8c00000006000000fa00d421ef00001027003b
:100e9c0021002000680207000080fa000000060014
:100eac000400fa0000712200000f7800006b230090
:100ebc0010079800eaff07006a00370071ff07006f
:100ecc001e0090008000eb006011b800044022006e
:100edc00450f20006033b80042fe070004242400b4
:100eec00f50020006033b800d5fd07000000be00ff
:100efc005102070063ff07001e0090008000eb000a
:100f0c006011b80004402200450f20006033b80087
:100f1c0034fe070004242400f50020006033b800e0
:100f2c00c7fd07000000be004302070055ff070085
:100f3c001e0090008000eb006011b80004402200fd
:100f4c00450f20006033b80026fe0700042424005f
:100f5c00f50020006033b800b9fd07000000be00aa
:100f6c003502070047ff07001e0090008000eb00d1
:100f7c006011b80004402200450f20006033b80017
:100f8c0018fe070004242400f50020006033b8008c
:100f9c00abfd07000000be002702070039ff070069
:100fac001e0090008000eb006011b800044022008d
:100fbc00450f20006033b8000afe0700042424000b
:100fcc00f50020006033b8009dfd07000000be0056
:100fdc00190207002bff070005e1a9000021ef0013
:100fec0005e1a8001e0090008000eb006011b80025
:100ffc0004402200450f20006033b800f9fd0700c3
:10100c0004242400f50020006033b8008cfd070098
:10101c000000be00080207001e0fe9009e007800c9
:10102c00618060000000e00008003a009e00900023
:10103c00803e2000808f5000040036001e0090007f
:10104c00401fb10010079800060037009e0090006a
:10105c00803e2000808f500002003e008d60a80072
:10106c0003003700c04080000000e00093ff320016
:10107c000080fa00000006000000fa008d60a90054
:10108c001828ef0076ff07000080fa000000060029
:10109c000000fa0082ff07000080fa000000060042
:1010ac000000fa00f4ff070000202100a107200037
:1010bc00e101070073ff07000080fa000000060042
:1010cc000200fa00000f78009e007800b10e880034
:1010dc009e007800c10e88009e007800d10e88001a
:1010ec000080fa00000006000000fa00b00e80003c
:1010fc00b2fe07000080fa00000006000400fa00af
:10110c00000f780011079800d222a900d202a90082
:10111c00013a800000002800008060000000e00020
:10112c0003003200d622a900d602a800ffff370028
:10113c00d622a800d602a90081e0a90005e1a800ea
:10114c00b00480000080a0000090a10000a0a000ce
:10115c00b004880084c0a9008cc0a800ecfd070076
:10116c00fdfd070070032000b2fe0700f00f200009
:10117c00e040880017fe070049ff070070032000bd
:10118c00acfe07000080260091982000aa01070001
:10119c00faff37000000fa008400a900d622a9004b
:1011ac00d602a8000080fa00004006000000fa00f9
:1011bc008420a900d622a900d602a8000080fa003b
:1011cc00004006000000fa008440a900d622a900c5
:1011dc00d602a8000080fa00004006000000fa00c9
:1011ec008460a900d622a900d602a8000080fa00cb
:1011fc00004006000000fa008480a900d622a90055
:10120c00d602a8000080fa00004006000000fa0098
:10121c0084a0a900d622a900d602a8000080fa005a
:10122c00004006003600f800809fbe00829fbe0082
:10123c00849fbe00869fbe000000fa0084c0a900f7
:10124c0090fe070011e1a9000621ef000080fa00d2
:10125c004f03be004f02be004f01be004f00be0048
:10126c003600f900004006000000fa0084e0a900f6
:10127c00d622a900d602a8000080fa000040060081
:10128c000000fa008500a90020c2a9000080fa0025
:10129c00004006000000fa008520a900d622a90013
:1012ac00d602a8000080fa00004006000000fa00f8
:1012bc008540a900d622a900d602a8000080fa0019
:1012cc00004006003600f800809fbe00821f7800a8
:1012dc000200fa008560a9000000eb00000f780006
:1012ec001114800030148000808f500006003600ee
:1012fc002114800030148000808f500002003100d7
:10130c003428ef00360037001114800020148000c0
:10131c00808f5000070036003114800020148000ac
:10132c00808f50000300310010002000a041880085
:10133c002b0037002114800010148000808f500087
:10134c00070036003114800010148000808f50008c
:10135c000300310020002000a0418800200037004d
:10136c002114800030148000808f5000070036005c
:10137c001114800030148000808f50000300310065
:10138c0030002000a0418800150037003114800087
:10139c0020148000808f500007003600111480004c
:1013ac0020148000808f500003003100400020008a
:1013bc00a04188000a00370031148000101480000e
:1013cc00808f50000600360021148000101480001d
:1013dc00808f50000200310050002000a041880096
:1013ec001114800020148000808040003014800094
:1013fc0080804000300020000001780011000900be
:10140c008280d80080418800a04180000000e0006c
:10141c0007003a008141800030148000808f50001a
:10142c0003003900f00f2000000f78003100370066
:10143c00a0418000e10f500007003a00814180007c
:10144c0020148000808f500003003e00f00f20001d
:10145c00000f780027003700a0418000e20f5000f9
:10146c0007003a008141800010148000808f5000ea
:10147c0003003900f00f2000000f78001d0037002a
:10148c00a0418000e30f500007003a00814180002a
:10149c0030148000808f500003003e00f00f2000bd
:1014ac00000f780013003700a0418000e40f5000bb
:1014bc0007003a008141800020148000808f50008a
:1014cc0003003900f00f2000000f780009003700ee
:1014dc00a0418000e50f500006003a0081418000d9
:1014ec0010148000808f500002003e00f00f20008e
:1014fc00000f7800f00f20009e007800808f5000c5
:10150c0012003a00804180000000e0000f00320021
:10151c008108800000002800008060000000e000ce
:10152c000a003a00f00f2000c0408800000880003c
:10153c000000d100f003b1006008880011e1a800a0
:10154c0005e1a9000021ef0005e1a8000080fa00e8
:10155c004f0178004f00be003600f9000040060035
:10156c000000fa008580a900d622a900d602a800a6
:10157c000080fa00004006000000fa0085a0a900d7
:10158c00d622a900d602a8000080fa00004006006e
:10159c000000fa0085c0a900d622a900d602a80036
:1015ac000080fa00004006000000fa0085e0a90067
:1015bc00d622a900d602a8000080fa00004006003e
:1015cc000000fa008600a900d622a900d602a800c5
:1015dc000080fa00004006000000fa008620a900f6
:1015ec00d622a900d602a8000080fa00004006000e
:1015fc000000fa008640a900d622a900d602a80055
:10160c000080fa00004006000000fa0086e0a90005
:10161c00d622a900d602a8000080fa0000400600dd
:10162c000000fa0088e0a900d622a900d602a80082
:10163c000080fa00004006000000fa008900a900b2
:10164c00d622a900d602a8000080fa0000400600ad
:10165c000000fa008960a900d622a900d602a800d1
:10166c000080fa00004006003400f800881f780063
:10167c0008002000a80188004f0478000000fa0040
:10168c008020a900d622a900d602a800d421ef0000
:10169c00ffff37003400f800881f78000800200096
:1016ac00a80188004f0478000000fa008060a900af
:1016bc00d622a900d602a800d421ef00ffff3700e4
:1016cc003400f800881f780008002000a80188006a
:1016dc004f0478000000fa008040a900d622a9002f
:1016ec00d602a800d421ef00ffff37003400f80029
:1016fc00881f780008002000a80188004f0478009b
:10170c000000fa008080a900d622a900d602a80009
:10171c00d421ef00ffff37003400f800881f780059
:10172c0008002000a80188004f0478000000fa008f
:10173c008020a900d622a900d602a800d421ef004f
:10174c00ffff37003400f800881f780008002000e5
:10175c00a80188004f0478000000fa008060a900fe
:10176c00d622a900d602a800d421ef00ffff370033
:10177c003400f800881f780008002000a8018800b9
:10178c004f0478000000fa008040a900d622a9007e
:10179c00d602a800d421ef00ffff37003400f80078
:1017ac00881f780008002000a80188004f047800ea
:1017bc000000fa008080a900d622a900d602a80059
:0817cc00d421ef00ffff3700fc
:020000040000fa
:1017d400140800002000000000000000340800008d
:1017e40002000000020000000500000036080000ae
:1017f4000c00000002000000010000000800ff00cf
:10180400f809fc00160000000008000014000000a5
:1018140002000000c9f23a0036140700290e140031
:101824000768db00a546ea0010d52100ea10000095
:10183400f80900000800000000000000000000009b
:020000040000fa
:10184400f03fb1000180b10006003500ee0309004d
:1018540000000000403fb1000180b100fbff3d00eb
:101864001000b000203fb0000200350000800900e5
:08187400000000000000060066
:020000040000fa
:0200000401f009
:04000000f6ff000007
:020000040000fa
:0200000401f009
:04000400ff7f00007a
:00000001FF
