:020000040000fa
:080000000001040000000000f3
:020000040000fa
:100008009a0100009a0100009a0100009a0100007c
:100018009a0100009a0100009a0100009a0100006c
:100028009a0100009a0100009a0100001a0a0000d3
:100038009a0100009a010000220a00009a010000bb
:10004800440a00009a0100009a010000c00800005c
:100058009a0100009a0100009a0100009a0100002c
:100068009a0100009a0100009a0100009a0100001c
:100078009a0100009a0100009a0100009a0100000c
:100088009a0100009a0100009a0100009a010000fc
:100098009a0100009a0100009a0100009a010000ec
:1000a8009a0100009a0100009a0100009a010000dc
:1000b8009a0100009a0100009a0100009a010000cc
:1000c8009a0100009a0100009a0100009a010000bc
:1000d8009a0100009a0100009a0100009a010000ac
:1000e8009a0100009a0100009a0100009a0100009c
:0800f8009a0100009a010000ca
:020000040000fa
:100108009a0100009a0100009a0100009a0100007b
:100118009a0100009a0100009a0100009a0100006b
:100128009a0100009a0100009a0100001a0a0000d2
:100138009a0100009a010000220a00009a010000ba
:10014800440a00009a0100009a010000c00800005b
:100158009a0100009a0100009a0100009a0100002b
:100168009a0100009a0100009a0100009a0100001b
:100178009a0100009a0100009a0100009a0100000b
:100188009a0100009a0100009a0100009a010000fb
:100198009a0100009a0100009a0100009a010000eb
:1001a8009a0100009a0100009a0100009a010000db
:1001b8009a0100009a0100009a0100009a010000cb
:1001c8009a0100009a0100009a0100009a010000bb
:1001d8009a0100009a0100009a0100009a010000ab
:1001e8009a0100009a0100009a0100009a0100009b
:0801f8009a0100009a010000c9
:020000040000fa
:10020000cf8320008e9e20000e0188000000000099
:10021000000020000000e000020032000001200089
:10022000200288000c000700e0a42000010020004c
:1002300011000700000020000000e0000200320072
:1002400000000200000000007a0802000000000028
:100250000040da000000fe004440a9000000200039
:100260000000e0000300320000002000a001880030
:100270004440a8000000060091018800800078003a
:100280000000eb0015003700e280400032a0b4000f
:100290009101ba00e280400032a0b4009102ba009d
:1002a000e280400032a0b4000002eb00472bde00e9
:1002b000f507b200602ce10004003a000059eb00a1
:1002c0008301e900fdff3e00040037006128e100e2
:1002d000010032000082eb00040007001101ba00a7
:1002e0000200e000e8ff3a00000006003159ba00c1
:1002f0008301e9000c0032002159ba008301e900b2
:10030000080032000400e00003003a00e2804000f0
:1003100032a0b400f5ff370011d9ba008301e9001b
:10032000faff3a008100e800e180400032a0b4000a
:10033000000006000040da000000fe008d00a90069
:1003400021e2a9008500a900000006008500a9009f
:10035000e700600082ff2f0068006000c304800097
:10036000030161004300de00028170006100600053
:10037000c20488004800dd00f1ef2f006204800015
:100380008280600081007000610488000000060027
:10039000001180006140600000000600101188001c
:1003a00001118800000006000080eb002002ab0075
:1003b0000700320020c2a9002342ab000200320035
:1003c000201180000000060020118000f00fb20014
:1003d000000006002342ab0001003a00f00fb2001b
:1003e0002011880000000600889fbe008a9fbe0082
:1003f00030044200b0844a0030054b0090854b0029
:100400006000b1000898be000a90be000440e10000
:1004100005c8e10006d0e10007d8e1000200310084
:10042000680040001008e8004f05be004f04be0001
:1004300000000600889fbe008a9fbe003004be00f8
:100440002005be000418540005985c0006185d00e5
:1004500007985d00110020000440e10005c8e1009c
:1004600006d0e10007d8e100010039008000eb0070
:10047000108810004f05be004f04be0000000600ab
:100480001200fa00889fbe008a9fbe008c9fbe00ab
:10049000e0b79f00f1b79f0082bf9f0093bf9f000e
:1004a0000605be000404be000000eb00d0b79f00ac
:1004b000c0b79f00b0b79f00a0b79f0090b79f0044
:1004c0000006eb005fb19700cfb0970082014100ba
:1004d0003fb097000200e00004003d003700070035
:1004e0007e805700c0ff070003003700330007007d
:1004f0007e805700cfff0700dfb697000d00e000b9
:100500000c0035006fb29700ffb297000fbb970049
:100510009fbb970010002000010020006011b80070
:1005200000027200818272000203730083837300f1
:100530001b0007000c06e80001042000810f560094
:10054000e0ff3a000d00e00004003d000802be009c
:100550000a03be007e805700a3ff07005fa8970034
:100560000000e00005003a001fb29700afb297000c
:100570003fb39700cfb39700090007006fb0970013
:10058000ffb097000fb997009fb997004f06be00c4
:100590004f05be004f04be000080fa0000000600b8
:1005a0000100070000000600a4b79f00b5b79f0038
:1005b000c6b79f00d7b79f00000006004f09de00b6
:1005c00082817100b3b79f004f01de00818040003f
:1005d00082807000a1b79f008fb097004f09de00a6
:1005e000000040000200700090b79f007fa89700b5
:1005f0004f01de00818040008280700081b79f0043
:100600000d0007004f3ade000000400004007000bb
:10061000f0af9f00080007000402420085824a00f4
:1006200006034b0087834b00dfff07000802be0074
:100630000a03be00000006002fb29700bfb2970069
:100640004fb39700dfb3970000000600881f7800c3
:1006500018002000881f780089ff07008f87e900b5
:100660004f04780000000600801feb0084ff0700a5
:100670008f87e90000000600889fbe008a9fbe00a9
:10068000e00f5000e08f5800e00f5900e08f590054
:100690000c003d006044b8006055b80000005400f4
:1006a00081805c0002015d0083815d0018002000f4
:1006b0001500070008003d00180007000004eb00cb
:1006c000050037000004eb000f00070002003d00aa
:1006d0001200070018002000dcff07000800e000ff
:1006e000060032006022b8006033b80000005200fb
:1006f00081805a0002015b0083815b004f05be00d0
:100700004f04be0000000600e00f5200e08f5a00c8
:10071000e00f5b00e08f5b00000006006044b80063
:100720006055b8000402540085825c0006035d0039
:1007300087835d0000000600889fbe008a9fbe0080
:100740008c1f7800e00f5000e08f5800e00f590038
:10075000e08f59000d003d006044b8006055b800be
:100760000000540081805c0002015d0083815d0017
:100770001c0020000820e10009a8e1000ab0e10007
:100780000bb8e1000d003d00080037000006eb004b
:10079000e00f5200e08f5a00e00f5b00e08f5b003b
:1007a00006003d006044b8006055b80004025400e3
:1007b00085825c0006035d0087835d00aaff070059
:1007c0000c00e000060032006022b8006033b80080
:1007d0000000520081805a0002015b0083815b00af
:1007e0004f0678004f05be004f04be000000060013
:1007f000889fbe008a9fbe008c1f78000006eb0019
:10080000e00f5000e08f5800e00f5900e08f5900d2
:1008100007003d006044b8006055b8000000540077
:1008200081805c0002015d0083815d001c0020006e
:10083000e00f5200e08f5a00e00f5b00e08f5b009a
:1008400007003d006044b8006055b8000402540041
:1008500085825c0006035d0087835d000c00a200ba
:100860000c0007000c00e000060032006022b80017
:100870006033b8000000520081805a0002015b0022
:1008800083815b004f0678004f05be004f04be0019
:1008900000000600889fbe008a9fbe008c9fbe009d
:1008a0000404b8000506b8008904460060854e00bf
:1008b0000606b8000a054600e0854e000706b800a7
:1008c0008b054600040eb800890446000a854e00d8
:1008d000e0854d00050eb8000a0546008b854e00e8
:1008e000060eb8008b0546000416b8000a0546003f
:1008f0008b854e000516b8008b054600041eb80017
:100900008b0546000800be000a01be004f06be006f
:0c0910004f05be004f04be0000000600b2
:020000040000fa
:10091c000000fa001828ef001a28ef001c28ef003e
:10092c001e28ef0060012000004188002228ef0003
:10093c00b06c2000204188002628ef002828ef000a
:10094c000080fa00000006000200fa00d822ef0036
:10095c00f0312000200e8800b0002000a04088005c
:10096c0010002000000f7800080037001e007800ef
:10097c00110020000008dd0080007800b0408000ed
:10098c0001007000b04088001e0fe800a0408000fd
:10099c009e007800808f5000f4ff39000001200089
:1009ac00000e8800f00f2000400e8800c221ef00de
:1009bc00f0062000600e8800c1e1a8000080fa005b
:1009cc00000006000000fa00c602a800c622a8001b
:1009dc00c642a800a862a900a882a900a8a2a900e2
:1009ec00c006200000158800200220003015880069
:1009fc00aa22ef00200020002015880000302000e3
:100a0c0010158800c004800000c0a00000d0a10018
:100a1c0000e0a000c00488008560a900a1e2a80045
:100a2c0000a0260081012000b50207000080fa001a
:100a3c00000006000400fa003dfe0700e0ff2f0056
:100a4c003ffe07001111800000082000010070001b
:100a5c0010118800c020ef00c220ef008020ef00b2
:100a6c008220ef00c642a800f0c92900000f7800d0
:100a7c00f0fb2d00100798009e0090001e007800df
:100a8c0043fe070011118000010f78000080fa006e
:100a9c00000006000600fa00200798000000eb009a
:100aac00000f78000000eb00100798000c003700d6
:100abc00110020001e0090000008dd00800078006e
:100acc002e009000008060000000e0000100320069
:100adc001e0fe8001e0090000000e80010079800b0
:100aec001e009000ef0f5000f1ff34001e00780044
:100afc00610060000000e00002003a0010002000dd
:100b0c00010037000000eb000080fa000000060036
:100b1c000600fa00200798000000eb00000f780098
:100b2c000000eb00100798000c00370011002000ab
:100b3c001e0090000008dd00800078002e00900060
:100b4c00008060000000e000010032001e0fe80091
:100b5c001e0090000000e800100798001e00900096
:100b6c00ee0f5000f1ff34009e00780061806000b1
:100b7c00004078000004e00005003200ae00900058
:100b8c0000002800010070002007980004003700c6
:100b9c00ae009000f0ff2700008060002007980056
:100bac002e0090000080fa00000006000400fa00fd
:100bbc00100798000000eb00000f78001e0090005a
:100bcc00d3ff0700000000004016800064006000a6
:100bdc000000e000fcff3a0000000000e9fd070007
:100bec000004e000fdff3200ecfd0700000f780070
:100bfc001e009000f4fd07000000000000118000b2
:100c0c00620060000000e000fcff3a001e0078006b
:100c1c000080fa00000006000000fa000080fa00d4
:100c2c00000006000200fa00000f7800200e800081
:100c3c008000e8001e0078000088b9008000780071
:100c4c008002200000017800110009008280d80089
:100c5c00b00e8800b00e8000c00e8800b00e800070
:100c6c00d00e8800b00e8000604188000080fa0031
:100c7c00000006000000fa00c04080000000e00008
:100c8c001b003a00d04080000000e000050032005c
:100c9c0070418000e50f500002003a002e28ef0052
:100cac0013003700d04080000000e00006003a003e
:100cbc00704180000000e00003003a00500020006a
:100ccc00704188000a003700d04080000000e0002e
:100cdc0004003200704180000000e8007041880080
:100cec0003003700704180000000e900704188006b
:100cfc00e04080000000e00027003a00f040800057
:100d0c000000e00024003a00704180000000e00088
:100d1c0003003a0040202000a00e88004a00370053
:100d2c0070418000e10f500003003a0000212000c8
:100d3c00a00e88004400370070418000e20f500084
:100d4c0003003a0000812000a00e88003e0037000e
:100d5c0070418000e30f500003003a001080200027
:100d6c00a00e88003800370070418000e40f50005e
:100d7c0003003a0010002200a00e88003200370059
:100d8c0070418000e50f50002e003a004000220018
:100d9c00a00e88002c003700e1408000f00f2000ee
:100dac00808f500028003a00f04080000000e000e6
:100dbc0025003a0070418000e20f50001400320010
:100dcc00e20f500005003c000000e0000a00320079
:100ddc00e10f50000b0032001b003700e40f5000f5
:100dec0011003200e40f50000c003500e50f5000ec
:100dfc00100032001400370040302000a00e880094
:100e0c001100370000312000a00e88000e003700c2
:100e1c0000c12000a00e88000b00370010c020007d
:100e2c00a00e88000800370010002300a00e8800d8
:100e3c000500370040002300a00e880000000000d1
:100e4c0001003700000000000080fa0000000600de
:100e5c000000fa0000a12000a00e88002e28ef0050
:100e6c000010270021002000a50107000080fa00d7
:100e7c00000006000000fa00d421ef00001027004b
:100e8c00210020009e0107000080fa0000000600ef
:100e9c000400fa0000712200000f7800006b2300a0
:100eac0010079800eaff07006900370071ff070080
:100ebc001e0090008000eb006011b800044022007e
:100ecc00450f20006033b80046fe070004242400c0
:100edc00f50020006033b800d9fd07000000be000b
:100eec008701070063ff07001e0090008000eb00e5
:100efc006011b80004402200450f20006033b80098
:100f0c0038fe070004242400f50020006033b800ec
:100f1c00cbfd07000000be007901070055ff07005c
:100f2c001e0090008000eb006011b800044022000d
:100f3c00450f20006033b8002afe0700042424006b
:100f4c00f50020006033b800bdfd07000000be00b6
:100f5c006b01070047ff07001e0090008000eb00ac
:100f6c006011b80004402200450f20006033b80027
:100f7c001cfe070004242400f50020006033b80098
:100f8c00affd07000000be005d01070039ff070040
:100f9c001e0090008000eb006011b800044022009d
:100fac00450f20006033b8000efe07000424240017
:100fbc00f50020006033b800a1fd07000000be0062
:100fcc004f0107002bff070005e1a9000021ef00ee
:100fdc0005e1a8001e0090008000eb006011b80035
:100fec0004402200450f20006033b800fdfd0700cf
:100ffc0004242400f50020006033b80090fd0700a5
:10100c000000be003e0107001e0fe9009e007800a4
:10101c00618060000000e00008003a009e00900033
:10102c00803e2000808f5000040036001e0090008f
:10103c00401fb10010079800050037009e0090007b
:10104c00803e2000808f500001003e008d60a80083
:10105c00c04080000000e00094ff32000080fa00e5
:10106c00000006000000fa008d60a9001828ef00af
:10107c0077ff07000080fa00000006000000fa006d
:10108c0083ff07000080fa00000006000000fa0051
:10109c00f4ff070000202100a10720001801070021
:1010ac0074ff07000080fa00000006000200fa003e
:1010bc00000f78009e007800b10e88009e0078002a
:1010cc00c10e88009e007800d10e88000080fa00c6
:1010dc00000006000000fa00b00e8000b3fe07000e
:1010ec000080fa00000006000400fa00000f7800ef
:1010fc001107980081e0a90005e1a800b004800068
:10110c000080a0000090a00000a0a000b004880007
:10111c0084c0a9008cc0a800fdfd07000afe0700d2
:10112c00c0032000bffe0700f00f2000e040880045
:10113c0024fe070056ff0700c0032000b9fe07007d
:10114c000080260091982000ed000700f08f200011
:10115c00b00e8800f08f2000c00e8800f08f2000a9
:10116c00d00e88000080260091982000e400070033
:10117c00f1ff37003600f800809fbe00821f780018
:10118c000800fa008560a9000000eb00000f780051
:10119c001214800021148000301480001207980073
:1011ac0021079800300798009e0090003e009000a8
:1011bc00808f500006003600ae0090003e0090007c
:1011cc00808f5000020031002e28ef0036003700cf
:1011dc009e0090002e009000808f5000070036007b
:1011ec00be0090002e009000808f50000300310054
:1011fc0010002000704188002b003700ae009000da
:10120c001e009000808f500007003600be0090003a
:10121c001e009000808f5000030031002000200041
:10122c007041880020003700ae0090003e00900016
:10123c00808f5000070036009e0090003e0090000a
:10124c00808f500003003100300020007041880076
:10125c0015003700be0090002e009000808f5000cb
:10126c00070036009e0090002e009000808f5000ea
:10127c000300310040002000704188000a00370054
:10128c00be0090001e009000808f500006003600bb
:10129c00ae0090001e009000808f500002003100c4
:1012ac0050002000704188009e0090002e0090009d
:1012bc00808040003e009000808040003000200084
:1012cc0000017800110009008280d800504188008c
:1012dc00704180000000e00007003a00be00900062
:1012ec0050418000808f500003003e00f00f200022
:1012fc00000f78003100370070418000e10f500082
:10130c0007003a00ae00900050418000808f5000e2
:10131c0003003900f00f2000000f78002700370081
:10132c0070418000e20f500007003a009e009000d0
:10133c0050418000808f500003003e00f00f2000d1
:10134c00000f78001d00370070418000e30f500043
:10135c0007003a00be00900050418000808f500082
:10136c0003003900f00f2000000f78001300370045
:10137c0070418000e40f500007003a00ae0090006e
:10138c0050418000808f500003003e00f00f200081
:10139c00000f78000900370070418000e50f500005
:1013ac0006003a009e00900050418000808f500053
:1013bc0002003900f00f2000000f7800f00f200021
:1013cc009e007800808f500012003a00504180003f
:1013dc000000e0000f0032008108800000002800af
:1013ec00008060000000e0000a003a00f00f2000ce
:1013fc00c0408800000880000000d100f003b1005c
:10140c006008880011e1a80005e1a9000021ef00a7
:10141c0005e1a8000080fa004f0178004f00be00e3
:10142c003600f900004006000000fa008460a900b4
:10143c000080fa00004006003600f800809fbe00d5
:10144c00829fbe00849fbe00869fbe000000fa00f3
:10145c0084c0a90007fe070011e1a9000621ef00d6
:10146c000080fa004f03be004f02be004f01be00c9
:10147c004f00be003600f900004006000000fa00e4
:10148c008500a90020c2a9000080fa0000400600d7
:020000040000fa
:10149c00140800001a000000000000002e080000d4
:1014ac0002000000020000000500000030080000ef
:1014bc000c00000002000000010000000800ff000a
:1014cc00f809fc00160000000008000014000000e1
:1014dc0002000000c9f23a0036140700290e14006d
:1014ec000768db00a546ea0010d52100ea100000d1
:1014fc00f8090000080000000000000000000000d7
:020000040000fa
:10150c00f03fb1000180b10006003500ee03090088
:10151c0000000000403fb1000180b100fbff3d0026
:10152c001000b000203fb000020035000080090020
:08153c000000000000000600a1
:020000040000fa
:0200000401f009
:04000000f6ff000007
:020000040000fa
:0200000401f009
:04000400ff7f00007a
:00000001FF
