:020000040000fa
:080000000001040000000000f3
:020000040000fa
:100008009a0100009a0100009a0100009a0100007c
:100018009a0100009a0100009a0100009a0100006c
:100028009a0100009a0100009a0100009a0100005c
:100038009a0100009a0100009a0100009a0100004c
:100048009a0100009a0100009a0100009a0100003c
:100058009a0100009a0100009a0100009a0100002c
:100068009a0100009a0100009a0100009a0100001c
:100078009a0100009a0100009a0100009a0100000c
:100088009a0100009a0100009a0100009a010000fc
:100098009a0100009a0100009a0100009a010000ec
:1000a8009a0100009a0100009a0100009a010000dc
:1000b8009a0100009a0100009a0100009a010000cc
:1000c8009a0100009a0100009a0100009a010000bc
:1000d8009a0100009a0100009a0100009a010000ac
:1000e8009a0100009a0100009a0100009a0100009c
:0800f8009a0100009a010000ca
:020000040000fa
:100108009a0100009a0100009a0100009a0100007b
:100118009a0100009a0100009a0100009a0100006b
:100128009a0100009a0100009a0100009a0100005b
:100138009a0100009a0100009a0100009a0100004b
:100148009a0100009a0100009a0100009a0100003b
:100158009a0100009a0100009a0100009a0100002b
:100168009a0100009a0100009a0100009a0100001b
:100178009a0100009a0100009a0100009a0100000b
:100188009a0100009a0100009a0100009a010000fb
:100198009a0100009a0100009a0100009a010000eb
:1001a8009a0100009a0100009a0100009a010000db
:1001b8009a0100009a0100009a0100009a010000cb
:1001c8009a0100009a0100009a0100009a010000bb
:1001d8009a0100009a0100009a0100009a010000ab
:1001e8009a0100009a0100009a0100009a0100009b
:0801f8009a0100009a010000c9
:020000040000fa
:100200006f8120000e9f20000e018800000000007a
:10021000000020000000e000020032000001200089
:10022000200288000c00070080312000010020001f
:1002300011000700000020000000e0000200320072
:100240000000020000000000d202020000000000d6
:100250000040da000000fe004440a9000000200039
:100260000000e0000300320000002000a001880030
:100270004440a8000000060091018800800078003a
:100280000000eb0015003700e280400032a0b4000f
:100290009101ba00e280400032a0b4009102ba009d
:1002a000e280400032a0b4000002eb00472bde00e9
:1002b000f507b200602ce10004003a000059eb00a1
:1002c0008301e900fdff3e00040037006128e100e2
:1002d000010032000082eb00040007001101ba00a7
:1002e0000200e000e8ff3a00000006003159ba00c1
:1002f0008301e9000c0032002159ba008301e900b2
:10030000080032000400e00003003a00e2804000f0
:1003100032a0b400f5ff370011d9ba008301e9001b
:10032000faff3a008100e800e180400032a0b4000a
:0c033000000006000040da000000fe00a3
:020000040000fa
:10033c000000fa00d822ef0000012000000e880017
:10034c00f00f2000400e8800f0052000200e8800e1
:10035c000000eb0030000700c221ef00100020006d
:10036c00600e8800c1e1a800100020000600070004
:10037c0020002000040007003000200002000700cd
:10038c000080fa00000006000200fa00000f78005e
:10039c001e007800e10f500008003a000040800079
:1003ac000000e00003003a0010002000004088002c
:1003bc00170037000028ef00150037001e007800ea
:1003cc00e20f500008003a00104080000000e000ee
:1003dc0003003a0010002000104088000c00370089
:1003ec000228ef000a0037001e007800e30f5000cf
:1003fc0007003a00204080000000e00003003a00b3
:10040c001000200020408800010037000428ef0075
:10041c000080fa00000006000200fa00000f7800cd
:10042c009e00780081408800210e80001e0078001c
:10043c000088b900000078000000400080007800bf
:10044c004006200000017800110009008280d800cd
:10045c00b00e8800210e80001e0078000088b900c4
:10046c00000078000000400080007800400620006a
:10047c0000017800110009008280d800c00e8800ad
:10048c00210e80001e0078000088b9000000780062
:10049c000000400080007800400620000001780039
:1004ac00110009008280d800d00e88000080fa006c
:1004bc00000006000000fa00b10e8000400620008b
:1004cc000088b90080007800f00f2000000178004f
:1004dc00110009008280d8000080fa00000006009c
:1004ec000000fa0090408000e50f500002003a0036
:1004fc001228ef0003003700904080000000e80055
:10050c0090408800904080000000e00003003a001a
:10051c0040022000a00e88001d0037009040800093
:10052c00e10f500003003a0010022000a00e8800da
:10053c001700370090408000e20f500003003a0093
:10054c0090002000a00e8800110037009040800021
:10055c00e30f500003003a0080012000a00e880039
:10056c000b00370090408000e40f500003003a006d
:10057c0020012000a00e880005003700904080006c
:10058c00e50f500002003a0060002000a00e880029
:10059c000080fa00000006000600fa001007980020
:1005ac0021079800e0012000000f780060ff070091
:1005bc001e00780098ff0700c9ff0700000022000a
:1005cc001100200009000700c5ff070000002200f1
:1005dc001100200005000700c1ff070000002200e9
:0c05ec001100200001000700f1ff3700a3
:020000040000fa
:1005f800f03fb1000180b10006003500ee030900ac
:1006080000000000403fb1000180b100fbff3d0049
:100618001000b000203fb000020035000080090043
:080628000000000000000600c4
:020000040000fa
:100630000008000014000000000000001408000082
:1006400002000000020000000100000000000000a5
:00000001FF
