:020000040000fa
:080000000001040000000000f3
:020000040000fa
:100008009a0100009a0100009a0100009a0100007c
:100018009a0100009a0100009a0100009a0100006c
:100028009a0100009a0100009a0100009a0100005c
:100038009a0100009a0100009a0100009a0100004c
:100048009a0100009a0100009a0100009a0100003c
:100058009a0100009a0100009a0100009a0100002c
:100068009a0100009a0100009a0100009a0100001c
:100078009a0100009a0100009a0100009a0100000c
:100088009a0100009a0100009a0100009a010000fc
:100098009a0100009a0100009a0100009a010000ec
:1000a8009a0100009a0100009a0100009a010000dc
:1000b8009a0100009a0100009a0100009a010000cc
:1000c8009a0100009a0100009a0100009a010000bc
:1000d8009a0100009a0100009a0100009a010000ac
:1000e8009a0100009a0100009a0100009a0100009c
:0800f8009a0100009a010000ca
:020000040000fa
:100108009a0100009a0100009a0100009a0100007b
:100118009a0100009a0100009a0100009a0100006b
:100128009a0100009a0100009a0100009a0100005b
:100138009a0100009a0100009a0100009a0100004b
:100148009a0100009a0100009a0100009a0100003b
:100158009a0100009a0100009a0100009a0100002b
:100168009a0100009a0100009a0100009a0100001b
:100178009a0100009a0100009a0100009a0100000b
:100188009a0100009a0100009a0100009a010000fb
:100198009a0100009a0100009a0100009a010000eb
:1001a8009a0100009a0100009a0100009a010000db
:1001b8009a0100009a0100009a0100009a010000cb
:1001c8009a0100009a0100009a0100009a010000bb
:1001d8009a0100009a0100009a0100009a010000ab
:1001e8009a0100009a0100009a0100009a0100009b
:0801f8009a0100009a010000c9
:020000040000fa
:100200006f8120000e9f20000e018800000000007a
:10021000000020000000e000020032000001200089
:10022000200288000c00070020322000010020007e
:1002300011000700000020000000e0000200320072
:100240000000020000000000d402020000000000d4
:100250000040da000000fe004440a9000000200039
:100260000000e0000300320000002000a001880030
:100270004440a8000000060091018800800078003a
:100280000000eb0015003700e280400032a0b4000f
:100290009101ba00e280400032a0b4009102ba009d
:1002a000e280400032a0b4000002eb00472bde00e9
:1002b000f507b200602ce10004003a000059eb00a1
:1002c0008301e900fdff3e00040037006128e100e2
:1002d000010032000082eb00040007001101ba00a7
:1002e0000200e000e8ff3a00000006003159ba00c1
:1002f0008301e9000c0032002159ba008301e900b2
:10030000080032000400e00003003a00e2804000f0
:1003100032a0b400f5ff370011d9ba008301e9001b
:10032000faff3a008100e800e180400032a0b4000a
:0c033000000006000040da000000fe00a3
:020000040000fa
:10033c000000fa00d822ef0000012000000e880017
:10034c00f00f2000400e8800f0052000200e8800e1
:10035c000000eb002e000700c221ef00c1e1a80055
:10036c0010002000060007002000200004000700f9
:10037c0030002000020007000080fa000000060098
:10038c000200fa00000f78001e007800e10f500008
:10039c0008003a00004080000000e00003003a0032
:1003ac001000200000408800170037000028ef00e4
:1003bc00150037001e007800e20f500008003a00cc
:1003cc00104080000000e00003003a001000200004
:1003dc00104088000c0037000228ef000a0037009c
:1003ec001e007800e30f500007003a002040800008
:1003fc000000e00003003a001000200020408800bc
:10040c00010037000428ef000080fa00000006000d
:10041c000200fa00000f78009e00780081408800ee
:10042c00210e80001e0078000088b9008000780042
:10043c00004080000088b9000000780000004000f7
:10044c0080007800400620000001780011000900af
:10045c008280d800b00e8800210e80001e0078002b
:10046c000088b90080007800104080000088b90036
:10047c00000078000000400080007800400620005a
:10048c0000017800110009008280d800c00e88009d
:10049c00210e80001e0078000088b90080007800d2
:1004ac00204080000088b900000078000000400067
:1004bc00800078004006200000017800110009003f
:1004cc008280d800d00e88000080fa000000060060
:1004dc000000fa00b10e8000400620000088b90030
:1004ec0080007800f00f2000000178001100090056
:1004fc008280d8000080fa00000006000000fa009c
:10050c0090408000e20f500002003a001228ef00e9
:10051c0003003700904080000000e8009040880005
:10052c00904080000000e00007003a00100020001e
:10053c00004088000228ef000428ef008040800073
:10054c00b3ff07001300370090408000e10f50000c
:10055c0007003a000028ef0010002000104088002f
:10056c000428ef0080408000a9ff07000900370035
:10057c0090408000e20f500006003a000028ef0087
:10058c000228ef00100020002040880080408000ee
:10059c009fff07000080fa00000006000a00fa0026
:1005ac003007980041079800e0012000000f780008
:1005bc000000eb00100798000040eb00404798004b
:1005cc005bff07001e00780091ff0700cbff0700c0
:1005dc00000022001100200009000700c7ff0700df
:1005ec00000022001100200005000700c3ff0700d7
:1005fc00000022001100200001000700f1ff37006d
:020000040000fa
:10060c00f03fb1000180b10006003500ee03090097
:10061c0000000000403fb1000180b100fbff3d0035
:10062c001000b000203fb00002003500008009002f
:08063c000000000000000600b0
:020000040000fa
:10064400000800001400000000000000140800006e
:100654000200000002000000010000000000000091
:00000001FF
