:020000040000fa
:080000000001040000000000f3
:020000040000fa
:100008009a0100009a0100009a0100009a0100007c
:100018009a0100009a0100009a0100009a0100006c
:100028009a0100009a0100009a0100009a0100005c
:100038009a0100009a0100009a0100009a0100004c
:10004800ba0400009a0100009a0100009a01000019
:100058009a0100009a0100009a0100009a0100002c
:100068009a0100009a0100009a0100009a0100001c
:100078009a0100009a0100009a0100009a0100000c
:100088009a0100009a0100009a0100009a010000fc
:100098009a0100009a0100009a0100009a010000ec
:1000a8009a0100009a0100009a0100009a010000dc
:1000b8009a0100009a0100009a0100009a010000cc
:1000c8009a0100009a0100009a0100009a010000bc
:1000d8009a0100009a0100009a0100009a010000ac
:1000e8009a0100009a0100009a0100009a0100009c
:0800f8009a0100009a010000ca
:020000040000fa
:100108009a0100009a0100009a0100009a0100007b
:100118009a0100009a0100009a0100009a0100006b
:100128009a0100009a0100009a0100009a0100005b
:100138009a0100009a0100009a0100009a0100004b
:10014800ba0400009a0100009a0100009a01000018
:100158009a0100009a0100009a0100009a0100002b
:100168009a0100009a0100009a0100009a0100001b
:100178009a0100009a0100009a0100009a0100000b
:100188009a0100009a0100009a0100009a010000fb
:100198009a0100009a0100009a0100009a010000eb
:1001a8009a0100009a0100009a0100009a010000db
:1001b8009a0100009a0100009a0100009a010000cb
:1001c8009a0100009a0100009a0100009a010000bb
:1001d8009a0100009a0100009a0100009a010000ab
:1001e8009a0100009a0100009a0100009a0100009b
:0801f8009a0100009a010000c9
:020000040000fa
:100200000f8020000e9f20000e01880000000000db
:10021000000020000000e000020032000001200089
:10022000200288000c00070040722000010020001e
:1002300011000700000020000000e0000200320072
:100240000000020000000000d004020000000000d6
:100250000040da000000fe004440a9000000200039
:100260000000e0000300320000002000a001880030
:100270004440a8000000060091018800800078003a
:100280000000eb0015003700e280400032a0b4000f
:100290009101ba00e280400032a0b4009102ba009d
:1002a000e280400032a0b4000002eb00472bde00e9
:1002b000f507b200602ce10004003a000059eb00a1
:1002c0008301e900fdff3e00040037006128e100e2
:1002d000010032000082eb00040007001101ba00a7
:1002e0000200e000e8ff3a00000006003159ba00c1
:1002f0008301e9000c0032002159ba008301e900b2
:10030000080032000400e00003003a00e2804000f0
:1003100032a0b400f5ff370011d9ba008301e9001b
:10032000faff3a008100e800e180400032a0b4000a
:10033000000006000040da000000fe008d00a90069
:1003400021e2a9008500a900000006008500a9009f
:10035000e700600082ff2f0068006000c304800097
:10036000030161004300de00028170006100600053
:10037000c20488004800dd00f1ef2f006204800015
:100380008280600081007000610488000000060027
:10039000001180006140600000000600101188001c
:1003a00001118800000006000080eb002002ab0075
:1003b0000700320020c2a9002342ab000200320035
:1003c000201180000000060020118000f00fb20014
:1003d000000006002342ab0001003a00f00fb2001b
:0803e000201188000000060056
:020000040000fa
:1003e8000200fa00004f7800ca22a900ca62a900d8
:1003f8001e00fb0061006000004078000004e0007f
:1004080002003200dc02a80001003700dc02a9006b
:100418001e00fb00620060000000e00002003200e5
:10042800dc22a80001003700dc22a9001e00fb0026
:10043800640060000000e00002003200dc42a80016
:1004480001003700dc42a9001e00fb0068006000c4
:100458000000e00002003200dc62a8000100370062
:10046800dc62a9001e00fb00700060000000e000d4
:1004780002003200dc82a80001003700dc82a900fb
:100488009e00fb0000022000008060000000e000e9
:1004980002003200dca2a80001003700dca2a9009b
:1004a8009e00fb0000042000008060000000e000c7
:1004b80002003200ca82a80001003700ca82a900df
:1004c8001e4078000004e00002003d00caa2a80017
:1004d80001003700caa2a900ca02a800c000200073
:1004e8000100200048020700ca02a9000080fa00a3
:1004f800000006000200fa00004f7800ca22a90096
:10050800ca62a8001e00fb0061006000004078007d
:100518000004e00002003200dc02a80001003700fd
:10052800dc02a9001e00fb00620060000000e00081
:1005380002003200dc22a80001003700dc22a900fa
:100548001e00fb00640060000000e00002003200b2
:10055800dc42a80001003700dc42a9001e00fb00b5
:10056800680060000000e00002003200dc62a800c1
:1005780001003700dc62a9001e00fb00700060006b
:100588000000e00002003200dc82a8000100370011
:10059800dc82a9009e00fb000002200000806000b1
:1005a8000000e00002003200dca2a80001003700d1
:1005b800dca2a9009e00fb0000042000008060006f
:1005c8000000e00002003200ca82a80001003700e3
:1005d800ca82a9001e4078000004e00002003d0025
:1005e800caa2a80001003700caa2a900ca02a8002e
:1005f800c00020000100200003020700ca02a90071
:10060800ca22a800ca62a900c6a2a8000000000069
:100618004116800000022000008060000000e00019
:10062800fbff3a00c6a2a9000080fa0000000600fd
:100638000000fa0010c0b30069ff0700000029009d
:1006480001002000f001070020c0b30064ff07008c
:10065800c0cc210001002000eb0107000080fa0057
:10066800000006000000fa00a022ef00a222ef001e
:10067800a422ef000080eb0040158800c602a90004
:10068800c622a900c662a900c682a900c6a2a900fe
:10069800d802a900d822a900d842a900d862a90086
:1006a800d882a900d8a2a900ca02a900ca22a90012
:1006b800ca62a900dc02a900dc22a900dc42a90068
:1006c800dc62a900dc82a900dca2a900ca82a90018
:1006d800caa2a9000000280041002000ca010700a2
:1006e80000c3b3003eff07000000290001002000fe
:1006f800c501070000c3b30039ff0700102e200012
:1007080001002000c001070000c3b30034ff070048
:10071800102e200001002000bb01070080c3b30099
:100728002fff070060662f0051002000b601070068
:1007380060c0b3002aff070060662f005100200048
:10074800b1010700c0c0b30025ff0700c0cc2100dd
:1007580001002000ac01070010c0b30020ff070013
:100768000000290001002000a701070020c0b300f5
:100778001bff0700c0cc210001002000a2010700d8
:100788000080fa00000006000600fa002007980022
:100798000000eb00000f78000000eb001007980045
:1007a8000c003700110020001e0090000008dd003a
:1007b800800078002e009000008060000000e000bb
:1007c800010032001e0fe8001e0090000000e80043
:1007d800100798001e009000ef0f5000f1ff340042
:1007e8001e007800610060000000e00002003a008e
:1007f80010002000010037000000eb000080fa0024
:10080800000006000600fa00200798000000eb0030
:10081800000f78000000eb00100798000c0037006c
:10082800110020001e0090000008dd008000780004
:100838002e009000008060000000e00001003200ff
:100848001e0fe8001e0090000000e8001007980046
:100858001e009000ee0f5000f1ff34009e0078005b
:1008680061806000004078000004e000050032006c
:10087800ae009000000028000100700020079800da
:1008880004003700ae009000f0ff270000806000f1
:10089800200798002e0090000080fa000000060053
:1008a8000400fa00100798000000eb00000f780021
:1008b8001e009000d3ff07000000000040168000d3
:1008c800640060000000e000fcff3a000000000047
:1008d800adfe07000004e000fdff3200b0fe070097
:1008e800000f78001e009000b8fe0700000000000e
:1008f80000118000620060000000e000fcff3a0088
:100908001e0078000080fa00000006000400fa00cb
:1009180088fe0700e0ff2f008afe07001111800003
:10092800000820000100700010118800c020ef00ae
:10093800c220ef008020ef008220ef00c642a8000e
:10094800f05d2900000f7800f0fb2d0010079800db
:100958009e0090001e0078008efe07001111800096
:10096800010f78000080fa00000006003400f8004b
:10097800881f780008002000a80188004f0478002c
:100988000000fa008500a90020c2a9000080fa0032
:100998003400f900004006000e00fa0050079800e5
:1009a800610798000000eb00200798000000eb00aa
:1009b800300798000040eb00004f980029ff07001f
:1009c800d2ff07000000eb00b5ff070020079800e2
:1009d8000040eb00004f78000040eb001047980003
:1009e8000040eb00204798000040eb00304798009b
:1009f8002e00900061006000004078000004e000d4
:100a0800020032001e04a00002003700e0cfb3004d
:100a18001e4f60002e009000620060000000e000a1
:100a2800020032001e14a00002003700d0cfb3002d
:100a38001e4f60002e009000640060000000e0007f
:100a4800020032001e24a00002003700b0cfb3001d
:100a58001e4f60002e009000680060000000e0005b
:100a6800020032001e34a0000200370070cfb3002d
:100a78001e4f60002e009000700060000000e00033
:100a8800040032001e4090000004a00010479800a7
:100a9800040037009e409000e0cfb30000c0600023
:100aa80010479800ae00900000022000008060000f
:100ab8000000e000040032001e4090000014a00076
:100ac80010479800040037009e409000d0cfb30034
:100ad80000c0600010479800ae009000000420009d
:100ae800008060000000e000040032001e4090001a
:100af8000024a00010479800040037009e40900092
:100b0800b0cfb30000c0600010479800ae0090005e
:100b180000082000008060000000e00004003200af
:100b28001e4090000034a0001047980004003700d1
:100b38009e40900070cfb30000c06000104798003e
:100b4800ae00900000102000008060000000e0006f
:100b5800040032002e4090000004a00020479800b6
:100b680004003700ae409000e0cfb30000c0600042
:100b780020479800ae009000002020000080600010
:100b88000000e000040032002e4090000014a00095
:100b98002047980004003700ae409000d0cfb30043
:100ba80000c0600020479800ae0090000040200080
:100bb800008060000000e000040032002e40900039
:100bc8000024a0002047980004003700ae409000a1
:100bd800b0cfb30000c0600020479800ae0090007e
:100be80000802000008060000000e0000400320067
:100bf8002e4090000034a0002047980004003700e1
:100c0800ae40900070cfb30000c06000204798004d
:100c1800ae00900000002100008060000000e000ad
:100c2800040032003e4090000004a00030479800c5
:100c380004003700be409000e0cfb30000c0600061
:100c480030479800ae00900000002200008060004d
:100c58000000e000040032003e4090000014a000b4
:100c68003047980004003700be409000d0cfb30052
:100c780000c0600030479800ae00900000002400db
:100c8800008060000000e000040032003e40900058
:100c98000024a0003047980004003700be409000b0
:100ca800b0cfb30000c06000304798002e0090001d
:100cb8000000e00004003d003e4090000034a00029
:100cc8003047980004003700be40900070cfb30052
:100cd80000c06000304798001e407800e94f50007f
:100ce80004003c001e4078000043b000004f78002c
:100cf800060037001e4078000043b000004f78001f
:100d08001e40780067404000004f78001e40900069
:100d1800e94f500004003c001e4090000043b00022
:100d280010479800060037001e4090000043b000ae
:100d3800104798001e4090006740400010479800f8
:100d48002e409000e94f500004003c002e409000d7
:100d58000043b00020479800060037002e4090005e
:100d68000043b000204798002e40900067404000a4
:100d7800204798003e409000e94f500004003c0096
:100d88003e4090000043b00030479800060037000e
:100d98003e4090000043b000304798003e4090002d
:100da800674040003047980000c5b300d1fd0700f8
:100db800a0c3b300cffd07003e409000cdfd070063
:100dc8002e409000cbfd07001e409000c9fd070093
:100dd8001e407800c7fd070000c2b300c5fd07002c
:100de80000c5b300c3fd070010c4b300c1fd070070
:100df80020c0b3007afd0700c0cc2100010020000c
:080e080001000700effe3700b6
:020000040000fa
:100e1000f03fb1000180b10006003500ee0309008b
:100e200000000000403fb1000180b100fbff3d0029
:100e30001000b000203fb000020035000080090023
:080e40000000000000000600a4
:020000040000fa
:040e480000000000a6
:00000001FF
