:020000040000fa
:080000000001040000000000f3
:020000040000fa
:100008009a0100009a0100009a0100009a0100007c
:100018009a0100009a0100009a0100009a0100006c
:100028009a0100009a0100009a0100009a0100005c
:100038009a0100009a0100009a0100009a0100004c
:100048009a0100009a0100009a0100009a0100003c
:100058009a0100009a0100009a0100009a0100002c
:100068009a0100009a0100009a0100009a0100001c
:100078009a0100009a0100009a0100009a0100000c
:100088009a0100009a0100009a0100009a010000fc
:100098009a0100009a0100009a0100009a010000ec
:1000a8009a0100009a0100009a0100009a010000dc
:1000b8009a0100009a0100009a0100009a010000cc
:1000c8009a0100009a0100009a0100009a010000bc
:1000d8009a0100009a0100009a0100009a010000ac
:1000e8009a0100009a0100009a0100009a0100009c
:0800f8009a0100009a010000ca
:020000040000fa
:100108009a0100009a0100009a0100009a0100007b
:100118009a0100009a0100009a0100009a0100006b
:100128009a0100009a0100009a0100009a0100005b
:100138009a0100009a0100009a0100009a0100004b
:100148009a0100009a0100009a0100009a0100003b
:100158009a0100009a0100009a0100009a0100002b
:100168009a0100009a0100009a0100009a0100001b
:100178009a0100009a0100009a0100009a0100000b
:100188009a0100009a0100009a0100009a010000fb
:100198009a0100009a0100009a0100009a010000eb
:1001a8009a0100009a0100009a0100009a010000db
:1001b8009a0100009a0100009a0100009a010000cb
:1001c8009a0100009a0100009a0100009a010000bb
:1001d8009a0100009a0100009a0100009a010000ab
:1001e8009a0100009a0100009a0100009a0100009b
:0801f8009a0100009a010000c9
:020000040000fa
:100200000f8020000e9f20000e01880000000000db
:10021000000020000000e000020032000001200089
:10022000200288000c000700a03b200001002000f5
:1002300011000700000020000000e0000200320072
:100240000000020000000000940302000000000013
:100250000040da000000fe004440a9000000200039
:100260000000e0000300320000002000a001880030
:100270004440a8000000060091018800800078003a
:100280000000eb0015003700e280400032a0b4000f
:100290009101ba00e280400032a0b4009102ba009d
:1002a000e280400032a0b4000002eb00472bde00e9
:1002b000f507b200602ce10004003a000059eb00a1
:1002c0008301e900fdff3e00040037006128e100e2
:1002d000010032000082eb00040007001101ba00a7
:1002e0000200e000e8ff3a00000006003159ba00c1
:1002f0008301e9000c0032002159ba008301e900b2
:10030000080032000400e00003003a00e2804000f0
:1003100032a0b400f5ff370011d9ba008301e9001b
:10032000faff3a008100e800e180400032a0b4000a
:0c033000000006000040da000000fe00a3
:020000040000fa
:10033c000200fa00004f7800ca22a900ca62a90084
:10034c001e00fb0061006000004078000004e0002b
:10035c0002003200dc02a80001003700dc02a90018
:10036c001e00fb00620060000000e0000200320092
:10037c00dc22a80001003700dc22a9001e00fb00d3
:10038c00640060000000e00002003200dc42a800c3
:10039c0001003700dc42a9001e00fb006800600071
:1003ac000000e00002003200dc62a800010037000f
:1003bc00dc62a9001e00fb00700060000000e00081
:1003cc0002003200dc82a80001003700dc82a900a8
:1003dc009e00fb0000022000008060000000e00096
:1003ec0002003200dca2a80001003700dca2a90048
:1003fc009e00fb0000042000008060000000e00074
:10040c0002003200ca82a80001003700ca82a9008b
:10041c001e4078000004e00002003d00caa2a800c3
:10042c0001003700caa2a900ca02a800c00020001f
:10043c0001002000be000700ca02a9000080fa00db
:10044c00000006000200fa00004f7800ca22a90042
:10045c00ca62a8001e00fb0061006000004078002a
:10046c000004e00002003200dc02a80001003700aa
:10047c00dc02a9001e00fb00620060000000e0002e
:10048c0002003200dc22a80001003700dc22a900a7
:10049c001e00fb00640060000000e000020032005f
:1004ac00dc42a80001003700dc42a9001e00fb0062
:1004bc00680060000000e00002003200dc62a8006e
:1004cc0001003700dc62a9001e00fb007000600018
:1004dc000000e00002003200dc82a80001003700be
:1004ec00dc82a9009e00fb0000022000008060005e
:1004fc000000e00002003200dca2a800010037007e
:10050c00dca2a9009e00fb0000042000008060001b
:10051c000000e00002003200ca82a800010037008f
:10052c00ca82a9001e4078000004e00002003d00d1
:10053c00caa2a80001003700caa2a900ca02a800da
:10054c00c00020000100200079000700ca02a900a9
:10055c00ca22a800ca62a900c6a2a8000000000016
:10056c004116800000022000008060000000e000c6
:10057c00fbff3a00c6a2a9000080fa0000000600aa
:10058c000000fa00a022ef00a222ef00a422ef004c
:10059c000080eb0040158800c602a900c622a90005
:1005ac00c662a900c682a900c6a2a900d802a900e9
:1005bc00d822a900d842a900d862a900d882a900e3
:1005cc00d8a2a900ca02a900ca22a900ca62a9001d
:1005dc00dc02a900dc22a900dc42a900dc62a90033
:1005ec00dc82a900dca2a900ca82a900caa2a900c7
:1005fc0000002800410020004d00070000c3b3009c
:10060c004bff0700c0cc2100010020004800070070
:10061c0000c3b30046ff0700c0cc2100010020003e
:10062c004300070000c3b30041ff0700c0cc21000a
:10063c00010020003e00070080c3b3003cff070010
:10064c00c0cc2100010020003900070060c0b300bd
:10065c0037ff0700c0cc2100010020003400070048
:10066c00c0c0b30032ff0700c0cc21000100200045
:10067c002f00070010c0b3002dff07000000290059
:10068c00010020002a00070020c0b30028ff07004b
:10069c00c0cc2100010020002500070030c5b300ac
:1006ac0068ff0700c0cc21000100200020000700db
:1006bc0000c5b30063ff0700c0cc2100010020007f
:1006cc001b00070010c4b3005eff0700c0cc210064
:1006dc00010020001600070020c5b30059ff0700d9
:1006ec00c0cc21000100200011000700b0c4b300f1
:1006fc0054ff0700c0cc2100010020000c000700b3
:10070c0090c5b3004fff0700c0cc210001002000b2
:10071c00070007000080fa00000006000400fa0041
:10072c00000f78001107980095ff0700ffff3700b6
:020000040000fa
:10073c00f03fb1000180b10006003500ee03090066
:10074c0000000000403fb1000180b100fbff3d0004
:10075c001000b000203fb0000200350000800900fe
:08076c0000000000000006007f
:020000040000fa
:040774000000000081
:00000001FF
