:020000040000fa
:080000000001040000000000f3
:020000040000fa
:100008009a0100009a0100009a0100009a0100007c
:100018009a0100009a0100009a0100009a0100006c
:100028009a0100009a0100009a010000e601000010
:100038009a0100009a0100009a0100009a0100004c
:100048009a0100009a0100009a0100009a0100003c
:100058009a0100009a0100009a0100009a0100002c
:100068009a0100009a0100009a0100009a0100001c
:100078009a0100009a0100009a0100009a0100000c
:100088009a0100009a0100009a0100009a010000fc
:100098009a0100009a0100009a0100009a010000ec
:1000a8009a0100009a0100009a0100009a010000dc
:1000b8009a0100009a0100009a0100009a010000cc
:1000c8009a0100009a0100009a0100009a010000bc
:1000d8009a0100009a0100009a0100009a010000ac
:1000e8009a0100009a0100009a0100009a0100009c
:0800f8009a0100009a010000ca
:020000040000fa
:100108009a0100009a0100009a0100009a0100007b
:100118009a0100009a0100009a0100009a0100006b
:100128009a0100009a0100009a010000e60100000f
:100138009a0100009a0100009a0100009a0100004b
:100148009a0100009a0100009a0100009a0100003b
:100158009a0100009a0100009a0100009a0100002b
:100168009a0100009a0100009a0100009a0100001b
:100178009a0100009a0100009a0100009a0100000b
:100188009a0100009a0100009a0100009a010000fb
:100198009a0100009a0100009a0100009a010000eb
:1001a8009a0100009a0100009a0100009a010000db
:1001b8009a0100009a0100009a0100009a010000cb
:1001c8009a0100009a0100009a0100009a010000bb
:1001d8009a0100009a0100009a0100009a010000ab
:1001e8009a0100009a0100009a0100009a0100009b
:0801f8009a0100009a010000c9
:020000040000fa
:100200004f8020000e9f20000e018800000000009b
:10021000000020000000e000020032000001200089
:10022000200288000c000700403a20000100200056
:1002300011000700000020000000e0000200320072
:10024000000002000000000098030200000000000f
:100250000040da000000fe004440a9000000200039
:100260000000e0000300320000002000a001880030
:100270004440a8000000060091018800800078003a
:100280000000eb0015003700e280400032a0b4000f
:100290009101ba00e280400032a0b4009102ba009d
:1002a000e280400032a0b4000002eb00472bde00e9
:1002b000f507b200602ce10004003a000059eb00a1
:1002c0008301e900fdff3e00040037006128e100e2
:1002d000010032000082eb00040007001101ba00a7
:1002e0000200e000e8ff3a00000006003159ba00c1
:1002f0008301e9000c0032002159ba008301e900b2
:10030000080032000400e00003003a00e2804000f0
:1003100032a0b400f5ff370011d9ba008301e9001b
:10032000faff3a008100e800e180400032a0b4000a
:0c033000000006000040da000000fe00a3
:020000040000fa
:10033c000000fa0081e0a800a004800000c0a0002a
:10034c0000d0a10000e0a000a00488008460a900f7
:10035c008c60a800200880000040a1000050a10083
:10036c002008880060662e001008880005e1a800af
:10037c000080fa00000006000000fa000040800037
:10038c0000f0a7000000ea000000e9004f00de00ca
:10039c00004088000080fa00000006000200fa000d
:1003ac00000f78000228ef000000000010408000d1
:1003bc009e0f5000fdff39000080fa00000006007f
:1003cc00801f78003400f80000002000a001880095
:1003dc000000fa008460a900104080000000e800d2
:1003ec00104088000080fa003400f9004f007800bb
:1003fc00004006000200fa00004f7800ca02a90073
:10040c00ca62a9001e00fb00610060000040780079
:10041c000004e00002003200dc02a80001003700fa
:10042c00dc02a9001e00fb00620060000000e0007e
:10043c0002003200dc22a80001003700dc22a900f7
:10044c001e00fb00640060000000e00002003200af
:10045c00dc42a80001003700dc42a9001e00fb00b2
:10046c00680060000000e00002003200dc62a800be
:10047c0001003700dc62a9001e00fb007000600068
:10048c000000e00002003200dc82a800010037000e
:10049c00dc82a9009e00fb000002200000806000ae
:1004ac000000e00002003200dca2a80001003700ce
:1004bc00dca2a9009e00fb0000042000008060006c
:1004cc000000e00002003200ca82a80001003700e0
:1004dc00ca82a9001e4078000004e00002003d0022
:1004ec00caa2a80001003700caa2a900ca02a9002a
:1004fc0010002000a9ff0700ca02a8000080fa0023
:10050c00000006000200fa00004f7800ca02a900a1
:10051c00ca62a8001e00fb00610060000040780069
:10052c000004e00002003200dc02a80001003700e9
:10053c00dc02a9001e00fb00620060000000e0006d
:10054c0002003200dc22a80001003700dc22a900e6
:10055c001e00fb00640060000000e000020032009e
:10056c00dc42a80001003700dc42a9001e00fb00a1
:10057c00680060000000e00002003200dc62a800ad
:10058c0001003700dc62a9001e00fb007000600057
:10059c000000e00002003200dc82a80001003700fd
:1005ac00dc82a9009e00fb0000022000008060009d
:1005bc000000e00002003200dca2a80001003700bd
:1005cc00dca2a9009e00fb0000042000008060005b
:1005dc000000e00002003200ca82a80001003700cf
:1005ec00ca82a9001e4078000004e00002003d0011
:1005fc00caa2a80001003700caa2a900ca02a90019
:10060c001000200065ff0700ca02a8000080fa0055
:10061c00000006000000fa00a022ef00a222ef006a
:10062c00a422ef000080eb0040158800c602a90050
:10063c00c622a900c662a900c682a900c6a2a9004a
:10064c00d802a900d822a900d842a900d862a900d2
:10065c00d882a900d8a2a900ca02a800ca22a9005f
:10066c00ca62a900dc02a900dc22a900dc42a900b4
:10067c00dc62a900dc82a900dca2a900ca82a90064
:10068c00caa2a9008002200044ff070000c3b300e7
:10069c0058ff07001000200040ff070000c3b30004
:1006ac0054ff0700400020003cff070000c3b300cc
:1006bc0050ff07001000200038ff070080c3b30074
:1006cc004cff07001000200034ff070060c0b3008f
:1006dc0048ff07001000200030ff0700c0c0b30027
:1006ec0044ff0700100020002cff070000c0eb00a7
:1006fc0084ff07002000200028ff070020c4b3005f
:10070c0080ff07002000200024ff070040c4b30036
:10071c007cff07002000200020ff07000080fa006b
:10072c00000006000400fa00000f78001107980082
:0c073c00fffe0700b7ff0700ffff3700bb
:020000040000fa
:100748000008000004000000000000000000000095
:00000001FF
